:020000040800F2
:10000000B8120020B5010008DD4C0008F13E0008E0
:10001000D94C0008010300089164000800000000AA
:10002000000000000000000000000000255A000849
:100030001D030008000000004D4D00087D5A000817
:10004000CF010008CF010008CF010008CF01000850
:10005000CF010008CF010008CF010008CF01000840
:10006000CF010008CF010008CF010008CF01000830
:10007000CF010008CF010008CF010008CF01000820
:10008000CF010008CF010008CF010008CF01000810
:10009000CF010008CF010008CF010008CF01000800
:1000A000CF010008CF010008CF010008CF010008F0
:1000B000CF010008CF0100081D5B0008CF01000838
:1000C000CF010008CF010008CF010008CF010008D0
:1000D000CF0100086D640008CF010008CF010008BF
:1000E000CF010008CF010008CF01000800F002F89E
:1000F00000F050F814A696E8000CB244B344DA4578
:1001000001D100F047F8BAE80F000FA696E83000DA
:10011000A5EB040504EB0607AAEB0704A7F101070A
:100120004FEA15154FEA3414A4F10104AC4201D38F
:1001300000F030F813F0010F18BFFB1A43F0010371
:1001400000F001F8DBE71847C8970000E8970000C7
:10015000103A24BF78C878C1FAD8520724BF30C8F3
:1001600030C144BF04680C60704700007047000055
:100170000023002400250026103A28BF78C1FBD8B0
:10018000520728BF30C148BF0B6070471FB51FBD65
:1001900010B510BD00F07EF81146FFF7F7FF08F02C
:1001A000EDFA00F09CF803B4FFF7F2FF03BC00F097
:1001B0009FF800000948804709480047FEE7FEE72E
:1001C000FEE7FEE7FEE7FEE7FEE7FEE7FEE7FEE707
:1001D00004480549054A064B70470000195B0008B2
:1001E000ED000008B80C0020B8120020B80E002066
:1001F000B80E00204FF000020429C0F0128010F069
:10020000030C00F01B80CCF1040CBCF1020F18BFF2
:1002100000F8012BA8BF20F8022BA1EB0C0100F085
:100220000DB85FEAC17C24BF00F8012B00F8012B58
:1002300048BF00F8012B70474FF0000200B513468D
:1002400094469646203922BFA0E80C50A0E80C50F6
:10025000B1F12001BFF4F7AF090728BFA0E80C50A7
:1002600048BF0CC05DF804EB890028BF40F8042BA0
:1002700008BF704748BF20F8022B11F0804F18BF0D
:1002800000F8012B7047704770477047004870476F
:10029000900000207546FFF7F9FFAE46050069465D
:1002A000534620F00700854618B020B5FFF790FFB1
:1002B000BDE820404FF000064FF000074FF0000867
:1002C0004FF0000BAC46ACE8C009ACE8C009ACE8A4
:1002D000C009ACE8C00921F007018D46704710B590
:1002E0000446AFF300802046BDE81040FFF75BBF37
:1002F00001491820ABBEFEE726000200704700004F
:10030000FFE7FEE780B540F60040C4F201004FF47D
:100310008051012200F0A2FA80BD00007047000069
:1003200081B0EFF3108072B60090FFE7FEE70000A7
:1003300040F26863C2F200035A7A012A84BF0120A6
:10034000704780B593F809C08646002003F80C007A
:100350005A7A03EB8202C2F804E05A7A1A44107205
:1003600093F809C00CF101025A720CF130020A70C4
:1003700042F63A72A1F80120C87080BD83B00190A6
:1003800000208DF80300019890F8210002280DD07C
:10039000FFE7019904208863FFE70199002081F8B5
:1003A0002000FFE701208DF80B0021E00198016893
:1003B000086820F00E00086001980168086820F0C5
:1003C000010008600198C16B026C012090404860F8
:1003D000FFE70199012081F82100FFE70199002042
:1003E00081F82000FFE79DF803008DF80B00FFE780
:1003F0009DF80B0003B0704780B588B007900020CF
:100400008DF81B00079890F82100022807D0FFE71D
:1004100007990420886301208DF81B0076E0079877
:100420000168086820F00E000860079801680868F5
:1004300020F001000860079800680821C4F202015A
:10044000884203D1FFE70120059047E00798006844
:100450001C21C4F20201884203D1FFE7102004905E
:1004600039E0079800683021C4F20201884204D1C3
:10047000FFE74FF4807003902AE00798006844215A
:10048000C4F20201884204D1FFE74FF48050029089
:100490001BE0079800685821C4F20201884204D189
:1004A000FFE74FF4803001900CE0079801686C2260
:1004B000C4F202024FF08070914208BF4FF48010E6
:1004C0000190FFE701980290FFE702980390FFE791
:1004D00003980490FFE704980590FFE7059804212E
:1004E000C4F2020108600799012081F82100FFE7AA
:1004F0000799002081F82000FFE70798406B20B1A2
:10050000FFE70798416B8847FFE7FFE79DF81B006F
:1005100008B080BD90B00F900E9100200D90099012
:10052000FFE70E9800680D99C840002800F07F8111
:10053000FFE70D99012088400C900E9800680C99F7
:1005400008400B900B980C99884240F06C81FFE7B3
:100550000E9840680590002851D0FFE705980128C3
:100560003AD0FFE7059802283FD0FFE70598032817
:100570005FD0FFE70598112832D0FFE705981228D1
:1005800038D0FFE705980021C1F21101884236D02A
:10059000FFE705980021C1F2120188422FD0FFE742
:1005A00005980021C1F22101884228D0FFE7059873
:1005B0000021C1F22201884221D0FFE705980021E5
:1005C000C1F2310188421AD0FFE705980021C1F23B
:1005D0003201884213D02FE00E98C06809902CE0B9
:1005E0000E98C0680430099027E00E98C068083063
:1005F000099022E00E98C0680C3009901DE00E981A
:10060000806818B9FFE70420099011E00E9880680F
:10061000012806D1FFE7082009900C980F9908617E
:1006200005E0082009900C980F994861FFE7FFE763
:1006300003E00020099000E0FFE70B98FF2803D8B3
:10064000FFE70F98049003E00F9804300490FFE751
:10065000049808900B98FF2804D8FFE70D988000B5
:10066000039006E00D996FF01F0000EB81000390EE
:10067000FFE70398079008980068079A0F219140B8
:100680008843099991400843089908600E98C079F9
:10069000C006002840F1C680FFE7FFE741F21800DE
:1006A000C4F20200016841F001010160006800F03D
:1006B000010006900698FFE70D9820F0030008213E
:1006C000C4F2010140580A900D9800F00300810027
:1006D0000F2000FA01F10A9888430A900F9840F61B
:1006E0000001C4F20101884203D1FFE7002002901B
:1006F00026E00F9840F60041C4F20101884203D180
:10070000FFE70120019018E00F9841F20001C4F2C8
:100710000101884203D1FFE7022000900AE00F990F
:1007200041F20042C4F201020420914208BF0320BA
:100730000090FFE700980190FFE701980290FFE723
:1007400002980D9901F00301890000FA01F10A985D
:1007500008430A900A980D9921F003010822C4F277
:10076000010288500E988079C006002809D5FFE75D
:100770000B9A40F20841C4F2010108681043086076
:1007800008E00B9A40F20841C4F201010868904366
:100790000860FFE70E9880798006002809D5FFE7FA
:1007A0000B9A40F20C41C4F2010108681043086042
:1007B00008E00B9A40F20C41C4F201010868904332
:1007C0000860FFE70E9880798007002809D5FFE7C9
:1007D0000B9A40F20441C4F201010868104308601A
:1007E00008E00B9A40F20441C4F20101086890430A
:1007F0000860FFE70E988079C00748B1FFE70B9AC1
:1008000040F20041C4F2010108681043086008E0AA
:100810000B9A40F20041C4F201010868904308605D
:10082000FFE7FFE7FFE70D9801300D9079E610B084
:100830007047000083B00290ADF806100298C068BF
:100840000090009ABDF8060002EA0001904340EAD9
:1008500001400299086103B07047000082B0019026
:10086000ADF802108DF801209DF8010028B1FFE7D6
:10087000BDF802000199086105E0BDF8020000041E
:1008800001990861FFE702B07047000040F6B040F0
:10089000C2F200000068704780B58EB00C900C98D2
:1008A00020B9FFE701208DF8370043E10C9890F85C
:1008B0003D0040B9FFE70C99002081F83C000C98FE
:1008C00001F048F8FFE70C99242081F83D000C98CE
:1008D0000168086820F0010008600C980168086849
:1008E00040F4004008600C980168086820F400405B
:1008F000086001F08FFA0A900C98406848F2A061F5
:10090000C0F2010188420BD8FFE70A9948F2804201
:10091000C0F21E020020914238BF012009900AE077
:100920000A9940F60012C0F23D020020914238BF01
:1009300001200990FFE70998012804D1FFE7012071
:100940008DF83700F6E00A984DF68361C4F21B314A
:10095000A0FB0110800C0B900C980068406820F000
:100960003F000B9908430C99096848600C9800688F
:10097000006A20F03F0008900C98406848F2A0619F
:10098000C0F20101884204D8FFE70B9801300790BC
:100990000EE00B984FF49671484344F6D351C1F2E0
:1009A0006201A0FB0101012000EB91100790FFE71D
:1009B0000898079908430C99096808620C98006820
:1009C000C0694CF6FF71884306900C98406848F265
:1009D000A061C0F2010188421FD8FFE70A980138E0
:1009E0000C9949684900B0FBF1F001306FF31F30FA
:1009F000032803D8FFE7042005900BE00A9801388C
:100A00000C9949684900B0FBF1F001306FF31F30D9
:100A10000590FFE7059804904CE00C98806868B951
:100A2000FFE70A9801380C99496801EB4101B0FBD6
:100A3000F1F001306FF31F3003900DE00A98013898
:100A40000C99496819225143B0FBF1F0013004219F
:100A500061F31F300390FFE70398000518B9FFE723
:100A60000120029023E00C98806868B9FFE70A989B
:100A700001380C99496801EB4101B0FBF1F00130FC
:100A80006FF31F3001900DE00A9801380C99496806
:100A900019225143B0FBF1F00130042161F31F3002
:100AA0000190FFE7019840F400400290FFE70298B0
:100AB0000490FFE70698049908430C990968C861F7
:100AC0000C980068006820F0C0000C9B1968DA6977
:100AD0001B6A1A43104308600C980068806848F24B
:100AE000FF3188430C9A1168D36812691A43104386
:100AF00088600C980068C06820F0FF000C9B1968A3
:100B00005A699B691A431043C8600C9801680868C9
:100B100040F0010008600C99002008640C9A202124
:100B200082F83D100C9908630C9981F83E008DF80D
:100B30003700FFE79DF837000EB080BD80B58CB060
:100B40000A90ADF8261008920793FFF79FFE0690D3
:100B5000002005900A9890F83D00202840F02B8155
:100B6000FFE70A9806996A4611600221C0F2100157
:100B70000122192303F098FC20B1FFE702208DF831
:100B80002F001CE1FFE70A9890F83C00012804D1EF
:100B9000FFE702208DF82F0011E10A99012081F86A
:100BA0003C00FFE7FFE70A9800680068C00738B913
:100BB000FFE70A980168086840F001000860FFE755
:100BC0000A980168086820F4006008600A992420E7
:100BD00081F83D000A99002008640A990020CFF6A8
:100BE000FF70C862FFE70A980168086840F48070E7
:100BF00008600A98079B06996A4611604FF0011138
:100C0000002203F051FC80B1FFE70A9800680068F9
:100C1000C005002805D5FFE70A994FF40070086465
:100C2000FFE703208DF82F00C9E0BDF8260000F093
:100C3000FE000A9909680861FFF728FE06900A98E5
:100C400000684069C0F340008DF813000A980068FE
:100C50004069C0F380208DF81200FFE70A9890F8F1
:100C60003D100020A02902900DD0FFE79DF8131041
:100C70000020029039B9FFE79DF81200B0FA80F029
:100C800040090290FFE70298C007F8B1FFE7FFF7BD
:100C9000FDFD0699401A0799884203D8FFE7079897
:100CA00028B9FFE70A99A02081F83D00FFE70A98DC
:100CB00000684069C0F340008DF813000A9800688E
:100CC0004069C0F380208DF81200C7E70A99202000
:100CD00081F83D000A980068406900F00201012097
:100CE000B0EB510F32D1FFE70A980168086840F471
:100CF00000700860FFE7002003900A9800684069D0
:100D000003900A980068806903900398FFE70A98A7
:100D100006996A4611600221C0F2100101221923CE
:100D200003F0C2FB20B1FFE701208DF82F0046E061
:100D30000A99202081F83D00FFE70A99002081F8F8
:100D40003C00FFE700208DF82F0038E00A9801688A
:100D5000086840F4007008600A9801686FF48060C9
:100D600048610A9806996A4611600221C0F2100192
:100D70000122192303F098FB20B1FFE701208DF831
:100D80002F001CE0FFE7059801300590FFE705986C
:100D900008998842FFF427AFFFE70A99202081F8DD
:100DA0003D00FFE70A99002081F83C00FFE70120A1
:100DB0008DF82F0003E002208DF82F00FFE79DF84B
:100DC0002F000CB080BD000080B590B0DDF848C0A9
:100DD0000A90ADF826100892ADF81E30002006905B
:100DE000FFF754FD05900A9890F83D00202840F048
:100DF0004182FFE70A9805996A4611600221C0F214
:100E000010010122192303F04FFB20B1FFE702205C
:100E10008DF82F0032E2FFE70A9890F83C00012895
:100E200004D1FFE702208DF82F0027E20A99012064
:100E300081F83C00FFE7FFE70A9800680068C007F8
:100E400038B9FFE70A980168086840F001000860B7
:100E5000FFE70A980168086820F4006008600A99B2
:100E6000222081F83D000A99102081F83E000A995D
:100E70000020086408980A994862BDF81E000A9983
:100E800048850A98408D0A9908850A990020CFF66E
:100E9000FF70C8620A98BDF82610129A059B03F0ED
:100EA0005BF820B1FFE701208DF82F00E6E10A98FA
:100EB000008DA0B9FFE7FFE7002004900A980068C2
:100EC000406904900A980068806904900498FFE7DC
:100ED0000A980168086840F4007008605DE00A98AC
:100EE000008D01281FD1FFE70A980168086820F4E7
:100EF00080600860EFF3108072B60F90FFE700206B
:100F000003900A980068406903900A980068806915
:100F100003900398FFE70A980168086840F400709E
:100F2000086062B638E00A98008D02281FD1FFE7FA
:100F30000A980168086840F400600860EFF31080C8
:100F400072B60E90FFE7002002900A980068406990
:100F500002900A980068806902900298FFE70A9858
:100F60000168086820F48060086062B613E00A989F
:100F70000168086840F480600860FFE70020019085
:100F80000A980068406901900A9800688069019099
:100F90000198FFE7FFE7FFE7FFE7FFE70A98008D0B
:100FA000002800F05581FFE70A98008D032800F221
:100FB0000781FFE70A98008D01281ED1FFE70A98F4
:100FC0001299059A03F09EFB20B1FFE701208DF8EE
:100FD0002F0053E10A98006800690A99496A08706D
:100FE0000A99486A013048620A99088D01380885D3
:100FF0000A99488D01384885E1E00A98008D022859
:1010000041D1FFE70A98129B05996A4611600421B5
:10101000C0F20101002203F047FA20B1FFE70120EE
:101020008DF82F002AE1EFF3108072B60D900A9828
:101030000168086840F4007008600A980068006958
:101040000A99496A08700A99486A013048620A99FF
:10105000088D013808850A99488D0138488562B69F
:101060000A98006800690A99496A08700A99486AEA
:10107000013048620A99088D013808850A99488D1F
:10108000013848859AE00A98129B05996A461160D2
:101090000421C0F20101002203F006FA20B1FFE7AB
:1010A00001208DF82F00E9E00A980168086820F413
:1010B00080600860EFF3108072B60C900A980068A8
:1010C00000690A99496A08700A99486A01304862B9
:1010D0000A99088D013808850A99488D0138488594
:1010E00040F20400C2F20000006848F21F51C5F24D
:1010F000EB11A0FB0110C00844F6D351C1F262010C
:10110000A0FB01108009232148430690FFE70698C1
:10111000013806900698D0B9FFE70A9900200863C5
:101120000A9A202182F83D100A9981F83E000A9916
:10113000086C40F02000086462B6FFE70A990020BE
:1011400081F83C00FFE701208DF82F0096E0FFE7D3
:101150000A980068406900F004010020B0EB910F8C
:10116000D5D0FFE70A980168086840F4007008606D
:101170000A98006800690A99496A08700A99486AD9
:10118000013048620A99088D013808850A99488D0E
:101190000138488562B60A98006800690A99496A68
:1011A00008700A99486A013048620A99088D013826
:1011B00008850A99488D01384885FFE7FFE746E032
:1011C0000A981299059A03F09DFA20B1FFE70120D1
:1011D0008DF82F0052E00A98006800690A99496A60
:1011E00008700A99486A013048620A99088D0138E6
:1011F00008850A99488D013848850A980068406931
:1012000000F004010120B0EB910F1FD1FFE70A9815
:10121000008D032807D1FFE70A980168086820F4C9
:1012200080600860FFE70A98006800690A99496AC7
:1012300008700A99486A013048620A99088D013895
:1012400008850A99488D01384885FFE7FFE7A5E63C
:101250000A99202081F83D000A99002081F83E007B
:10126000FFE70A99002081F83C00FFE700208DF895
:101270002F0003E002208DF82F00FFE79DF82F00DC
:1012800010B080BD80B588B0DDF828C00690ADF8FC
:1012900016100492ADF80E30FFF7F8FA0290069897
:1012A00090F83D00202840F0E980FFE70698029979
:1012B0006A4611600221C0F210010122192303F0D5
:1012C000F3F820B1FFE702208DF81F00DAE0FFE716
:1012D000069890F83C00012804D1FFE702208DF821
:1012E0001F00CFE00699012081F83C00FFE7FFE7EF
:1012F000069800680068C00738B9FFE706980168DB
:10130000086840F001000860FFE706980168086877
:1013100020F4006008600699212081F83D000699BC
:10132000102081F83E000699002008640498069970
:101330004862BDF80E00069948850698408D0699CA
:10134000088506990020CFF6FF70C8620698BDF8A0
:1013500016100A9A029B02F0D5FE20B1FFE7012089
:101360008DF81F008EE0FFE70020019006980068CE
:101370004069019006980068806901900198FFE734
:10138000FFE70698008D002860D0FFE706980A99CD
:10139000029A03F025FA80B1FFE70698006C042852
:1013A00007D1FFE706980168086840F400700860FC
:1013B000FFE701208DF81F0064E006980168406A8D
:1013C000007808610699486A013048620699488D9C
:1013D000013848850699088D013808850698006807
:1013E000406900F004010120B0EB910F16D1FFE736
:1013F0000698008D90B1FFE706980168406A007872
:1014000008610699486A013048620699488D01389A
:1014100048850699088D01380885FFE706980A99DE
:10142000029A02F0EBFF80B1FFE70698006C0428F7
:1014300007D1FFE706980168086840F4007008606B
:10144000FFE701208DF81F001CE09AE7069801686D
:10145000086840F4007008600699202081F83D007B
:101460000699002081F83E00FFE70699002081F8E8
:101470003C00FFE700208DF81F0003E002208DF8FC
:101480001F00FFE79DF81F0008B080BD10B590B0A9
:10149000844614981398DDF848E0CDF828C0ADF8DC
:1014A0002610ADF82420ADF82230ADF82000002041
:1014B0000790FFF7EBF906900A9890F83D00202876
:1014C00040F03F82FFE70A9806996A4611600221C0
:1014D000C0F210010122192302F0E6FF20B1FFE75C
:1014E00002208DF82F0030E2FFE70A9890F83C00C8
:1014F000012804D1FFE702208DF82F0025E20A9988
:10150000012081F83C00FFE7FFE70A9800680068C7
:10151000C00738B9FFE70A980168086840F0010081
:101520000860FFE70A980168086820F40060086016
:101530000A99222081F83D000A99402081F83E0056
:101540000A990020086412980A994862BDF82000A0
:101550000A9948850A98408D0A9908850A990020B9
:10156000CFF6FF70C8620A98BDF82610BDF8242097
:10157000BDF82230DDF850C0069CEE46CEF804409F
:10158000CEF800C002F048FE20B1FFE701208DF840
:101590002F00DAE10A98008DA0B9FFE7FFE70020ED
:1015A00005900A980068406905900A98006880696B
:1015B00005900598FFE70A980168086840F40070F4
:1015C00008605DE00A98008D01281FD1FFE70A98A6
:1015D0000168086820F480600860EFF3108072B63C
:1015E0000F90FFE7002004900A980068406904907B
:1015F0000A980068806904900498FFE70A980168D7
:10160000086840F40070086062B638E00A98008DFF
:1016100002281FD1FFE70A980168086840F40060BB
:101620000860EFF3108072B60E90FFE70020039081
:101630000A980068406903900A98006880690390DE
:101640000398FFE70A980168086820F48060086042
:1016500062B613E00A980168086840F48060086088
:10166000FFE7002002900A980068406902900A98FB
:101670000068806902900298FFE7FFE7FFE7FFE755
:10168000FFE70A98008D002800F04981FFE70A98DB
:10169000008D032800F20781FFE70A98008D0128DA
:1016A0001ED1FFE70A981499069A03F02BF820B18F
:1016B000FFE701208DF82F0047E10A9800680069D4
:1016C0000A99496A08700A99486A013048620A9979
:1016D000088D013808850A99488D01384885E1E070
:1016E0000A98008D022841D1FFE70A98149B0699B9
:1016F0006A4611600421C0F20101002202F0D4FE0A
:1017000020B1FFE701208DF82F001EE1EFF31080DC
:1017100072B60D900A980168086840F4007008607D
:101720000A98006800690A99496A08700A99486A23
:10173000013048620A99088D013808850A99488D58
:101740000138488562B60A98006800690A99496AB2
:1017500008700A99486A013048620A99088D013870
:1017600008850A99488D013848859AE00A98149BA3
:1017700006996A4611600421C0F20101002202F0BC
:1017800093FE20B1FFE701208DF82F00DDE00A98DD
:101790000168086820F480600860EFF3108072B67A
:1017A0000C900A98006800690A99496A08700A99B9
:1017B000486A013048620A99088D013808850A99FB
:1017C000488D0138488540F20400C2F200000068EC
:1017D00048F21F51C5F2EB11A0FB0110C00844F6FE
:1017E000D351C1F26201A0FB0110800923214843BB
:1017F0000790FFE70798013807900798D0B9FFE7EF
:101800000A99002008630A9A202182F83D100A995B
:1018100081F83E000A99086C40F02000086462B626
:10182000FFE70A99002081F83C00FFE701208DF8CE
:101830002F008AE0FFE70A980068406900F0040181
:101840000020B0EB910FD5D0FFE70A980168086837
:1018500040F4007008600A98006800690A99496AB3
:1018600008700A99486A013048620A99088D01385F
:1018700008850A99488D0138488562B60A9800683B
:1018800000690A99496A08700A99486A01304862F1
:101890000A99088D013808850A99488D01384885CC
:1018A000FFE7FFE73AE00A981499069A02F02AFF48
:1018B00020B1FFE701208DF82F0046E00A9800686C
:1018C00000690A99496A08700A99486A01304862B1
:1018D0000A99088D013808850A99488D013848858C
:1018E0000A980068406900F004010120B0EB910FF4
:1018F00013D1FFE70A98006800690A99496A0870DD
:101900000A99486A013048620A99088D01380885A9
:101910000A99488D01384885FFE7FFE7B1E60A9943
:10192000202081F83D000A99002081F83E00FFE761
:101930000A99002081F83C00FFE700208DF82F0075
:1019400003E002208DF82F00FFE79DF82F0010B074
:1019500010BD000080B58AB0099000200890079063
:10196000069005900998006845F20041C4F2000114
:1019700088422CD1FFE7FFE741F21800C4F20200D1
:10198000016841F008010160006800F0080004905F
:101990000498FFE7C02005901220069003200890CD
:1019A00040F60040C4F2010005A9FEF7B3FDFFE7D1
:1019B00041F21C00C4F20200016841F40011016010
:1019C000006800F4001003900398FFE736E00998E0
:1019D000006845F60001C4F2000188422DD1FFE7FE
:1019E000FFE741F21800C4F20200016841F008016B
:1019F0000160006800F0080002900298FFE74FF4D1
:101A000040600590122006900320089040F60040A8
:101A1000C4F2010005A9FEF77DFDFFE741F21C00BD
:101A2000C4F20200016841F480010160006800F422
:101A3000800001900198FFE7FFE7FFE70AB080BD53
:101A400040F28600C2F20000027840F6B041C2F2D5
:101A500000010868104408607047000080B542F239
:101A60000001C4F20201086840F010000860032081
:101A700000F096F80F2000F005F800F03BF8002089
:101A800080BD000080B582B0009040F20400C2F238
:101A90000000006840F28601C2F200010A784FF4AB
:101AA0007A71B1FBF2F1B0FBF1F001F053F920B122
:101AB000FFE701208DF8070018E000980F280DD8E7
:101AC000FFE700994FF0FF30002200F04FF8009838
:101AD00040F28801C2F20001086003E001208DF8A5
:101AE000070003E000208DF80700FFE79DF80700DE
:101AF00002B080BD83B0FFE741F21800C4F20200DB
:101B0000016841F001010160006800F001000290ED
:101B10000298FFE7FFE741F21C00C4F202000168EF
:101B200041F080510160006800F080500190019800
:101B3000FFE7FFE70421C4F2010108680090009864
:101B400020F0E0600090009840F000700090009855
:101B50000860FFE703B0704780B582B08DF80700DA
:101B60009DF9070004F096FC02B080BD80B586B0F8
:101B70008DF81700049103920020029004F0A2FC5B
:101B800002909DF91700019002980499039A03F0BE
:101B9000A7F80146019804F09DFC06B080BD000046
:101BA00080B582B00190019804F0B6FC02B080BD0F
:101BB00080B584B002900191029820B9FFE701201E
:101BC0008DF80F001BE1019842F20001C4F20201FE
:101BD000096801F00701884216D9FFE742F20000C8
:101BE000C4F20200016821F00701019A114301606B
:101BF000006800F007000199884204D0FFE7012047
:101C00008DF80F00FBE0FFE70298007880070028BE
:101C10002AD5FFE7029800784007002809D5FFE79A
:101C200041F20401C4F20201086840F4E060086077
:101C3000FFE7029800780007002809D5FFE741F286
:101C40000401C4F20201086840F460500860FFE734
:101C500041F20401C4F20201086820F0F000029A87
:101C6000926810430860FFE702980078C0070028D8
:101C700060D0FFE70298406801280ED1FFE741F2EB
:101C80000000C4F2020000688003002804D4FFE7CB
:101C900001208DF80F00B2E021E002984068022890
:101CA0000ED1FFE741F20000C4F20200006880019B
:101CB000002804D4FFE701208DF80F009FE00DE01D
:101CC00041F20000C4F2020000688007002804D43A
:101CD000FFE701208DF80F0091E0FFE7FFE741F2F9
:101CE0000401C4F20201086820F00300029A52685D
:101CF00010430860FEF7CAFD0090FFE741F20400C0
:101D0000C4F20200006800F00C0002994968B0EBD0
:101D1000810F0ED0FFE7FEF7B9FD0099401A41F29E
:101D20008931884204D3FFE703208DF80F0066E075
:101D3000E4E7FFE7019842F20001C4F202010968FA
:101D400001F00701884216D2FFE742F20000C4F218
:101D50000200016821F00701019A11430160006847
:101D600000F007000199884204D0FFE701208DF8B8
:101D70000F0044E0FFE702980078400700280CD5E8
:101D8000FFE741F20401C4F20201086820F4E060B8
:101D9000029AD26810430860FFE7029800780007B3
:101DA00000280DD5FFE741F20401C4F202010868E2
:101DB00020F46050029A126940EAC2000860FFE70E
:101DC00000F04CF841F20401C4F202010968C9B202
:101DD0000A0949F2E021C0F60001895CC84040F2DE
:101DE0000401C2F20001086040F28800C2F2000063
:101DF0000068FFF747FE00208DF80F00FFE79DF811
:101E00000F0004B080BD000040F20400C2F20000E8
:101E10000068704780B5FFF7F7FF41F20401C4F294
:101E200002010968C1F3022249F2F021C0F6000163
:101E3000895CC84080BD000080B5FFF7E5FF41F236
:101E40000401C4F202010968C1F3C22249F2F0217F
:101E5000C0F60001895CC84080BD000086B000204B
:101E60000590049003900290019041F20400C4F2A6
:101E7000020000680590059800F00C0001460091F2
:101E800000283FD0FFE70098042804D0FFE700981F
:101E9000082806D037E041F20020C0F27A00019015
:101EA00037E00598C0F3834149F27830C0F600006E
:101EB000405C02909DF81600C007C0B1FFE741F2F8
:101EC0000400C4F202000068C0F3404149F28830C7
:101ED000C0F60000405C0490029841F20021C0F27C
:101EE0007A0148430499B0FBF1F0039007E00298AF
:101EF00040F60011C0F23D0148430390FFE703980C
:101F0000019006E0FFE741F20020C0F27A00019064
:101F1000FFE7019806B0704780B586B0049004983A
:101F200020B9FFE701208DF817002EE30498007810
:101F3000C007002800F0AE80FFE741F20400C4F2C1
:101F40000200006800F00C00042813D0FFE741F203
:101F50000400C4F20200006800F00C0008281BD145
:101F6000FFE741F20400C4F202000068C003002849
:101F700012D5FFE741F20000C4F2020000688003BE
:101F8000002808D5FFE70498406820B9FFE7012042
:101F90008DF81700F9E27CE0FFE704984068B0F59F
:101FA000803F09D1FFE741F20001C4F20201086855
:101FB00040F48030086032E00498406868B9FFE778
:101FC00041F20001C4F20201086820F48030086088
:101FD000086820F48020086020E004984068B0F58C
:101FE000A02F0DD1FFE741F20001C4F20201086801
:101FF00040F480200860086840F4803008600CE0FD
:1020000041F20001C4F20201086820F48030086047
:10201000086820F480200860FFE7FFE7FFE7FFE79C
:1020200004984068D0B1FFE7FEF730FC0390FFE76B
:1020300041F20000C4F202000068800300280CD4C2
:10204000FFE7FEF723FC0399401A652804D3FFE756
:1020500003208DF8170098E2EAE719E0FEF716FC76
:102060000390FFE741F20000C4F202000068800321
:1020700000280CD5FFE7FEF709FC0399401A6528F4
:1020800004D3FFE703208DF817007EE2EAE7FFE7BD
:10209000FFE7FFE7049800788007002840F18D8073
:1020A000FFE741F20400C4F20200006810F00C0FD8
:1020B00013D0FFE741F20400C4F20200006800F010
:1020C0000C00082829D1FFE741F20400C4F2020005
:1020D0000068C003002820D4FFE741F20000C4F2EA
:1020E000020000688007002809D5FFE7049800690E
:1020F000012804D0FFE701208DF8170045E241F2E6
:102100000001C4F20201086820F0F800049A526944
:1021100040EAC2000860FFE74EE00498006958B347
:10212000FFE70021C4F2422101200860FEF7AEFB68
:102130000390FFE741F20000C4F20200006880074C
:1021400000280CD4FFE7FEF7A1FB0399401A0328EF
:1021500004D3FFE703208DF8170016E2EAE741F207
:102160000001C4F20201086820F0F800049A5269E4
:1021700040EAC20008601EE00021C4F242210020B3
:102180000860FEF783FB0390FFE741F20000C4F212
:1021900002000068800700280CD5FFE7FEF776FBF9
:1021A0000399401A032804D3FFE703208DF8170092
:1021B000EBE1EAE7FFE7FFE7FFE7049800780007B5
:1021C000002848D5FFE70498806918B3FFE740F27C
:1021D0008041C4F2422101200860FEF757FB0390C2
:1021E000FFE741F22400C4F20200006880070028E3
:1021F0000CD4FFE7FEF74AFB0399401A032804D3E7
:10220000FFE703208DF81700BFE1EAE7012002F0A5
:102210009FFD1FE040F28041C4F24221002008608F
:10222000FEF734FB0390FFE741F22400C4F2020002
:102230000068800700280CD5FFE7FEF727FB03990D
:10224000401A032804D3FFE703208DF817009CE110
:10225000EAE7FFE7FFE7049800784007002840F12D
:10226000D880FFE700208DF8070041F21C00C4F27F
:1022700002000068C000002813D4FFE7FFE741F226
:102280001C00C4F20200016841F080510160006846
:1022900000F0805000900098FFE701208DF80700C3
:1022A000FFE747F20000C4F200000068C005002804
:1022B00022D4FFE747F20001C4F20001086840F4AD
:1022C00080700860FEF7E2FA0390FFE747F2000033
:1022D000C4F200000068C00500280CD4FFE7FEF738
:1022E000D5FA0399401A652804D3FFE703208DF837
:1022F00017004AE1EAE7FFE7FFE70498C068012812
:1023000009D1FFE741F22001C4F20201086840F060
:102310000100086031E00498C06868B9FFE741F245
:102320002001C4F20201086820F00100086008687A
:1023300020F0040008601FE00498C06805280DD153
:10234000FFE741F22001C4F20201086840F00400F6
:102350000860086840F0010008600CE041F22001CC
:10236000C4F20201086820F001000860086820F04B
:1023700004000860FFE7FFE7FFE7FFE70498C06895
:10238000E0B1FFE7FEF782FA0390FFE741F2200099
:10239000C4F202000068800700280ED4FFE7FEF7B1
:1023A00075FA0399401A41F28931884204D3FFE754
:1023B00003208DF81700E8E0E8E71BE0FEF766FA77
:1023C0000390FFE741F22000C4F20200006880079A
:1023D00000280ED5FFE7FEF759FA0399401A41F29B
:1023E0008931884204D3FFE703208DF81700CCE041
:1023F000E8E7FFE79DF80700012809D1FFE741F270
:102400001C01C4F20201086820F080500860FFE758
:10241000FFE70498C069002800F0B380FFE741F2AD
:102420000400C4F20200006800F00C00082800F06C
:102430008280FFE70498C06902285CD1FFE7602131
:10244000C4F2422100200860FEF720FA0390FFE763
:1024500041F20000C4F202000068800100280CD59F
:10246000FFE7FEF713FA0399401A032804D3FFE7A6
:1024700003208DF8170088E0EAE70498006AB0F5B9
:10248000803F0CD1FFE741F20401C4F20201086869
:1024900020F40030049A926810430860FFE741F28C
:1024A0000401C4F20201086820F47410049B1A6A43
:1024B0005B6A1A43104308606021C4F24221012084
:1024C0000860FEF7E3F90390FFE741F20000C4F271
:1024D00002000068800100280CD4FFE7FEF7D6F95F
:1024E0000399401A032804D3FFE703208DF817004F
:1024F0004BE0EAE71EE06021C4F2422100200860C0
:10250000FEF7C4F90390FFE741F20000C4F20200B5
:102510000068800100280CD5FFE7FEF7B7F90399A2
:10252000401A032804D3FFE703208DF817002CE09E
:10253000EAE7FFE724E00498C069012804D1FFE737
:1025400001208DF8170020E041F20400C4F20200DF
:1025500000680290029800F480300499096A884269
:1025600008D1FFE7029800F470100499496A884284
:1025700004D0FFE701208DF8170006E0FFE7FFE732
:10258000FFE700208DF81700FFE79DF8170006B061
:1025900080BD000081B00090009890F8510001B01B
:1025A0007047000080B584B00290029820B9FFE720
:1025B00001208DF80F006DE00298406A60B9FFE7D6
:1025C00002984068B0F5827F01D1FFE703E00299ED
:1025D0000020C861FFE705E0029900200861029928
:1025E0004861FFE7029900208862029890F8510044
:1025F00040B9FFE70299002081F85000029800F0EE
:102600004DF8FFE70299022081F851000298016815
:10261000086820F040000860029A01921168506832
:10262000D2F808C0D36800F482700CF4044C604403
:1026300003F400631844136903F002031844536958
:1026400003F001031844936903F400731844D36939
:1026500003F038031844136A03F080031843926AA6
:1026600002F40052104308600299488B00F0040005
:102670000968486002980168C86920F40060C86170
:10268000029900204865029A012182F851108DF8C4
:102690000F00FFE79DF80F0004B080BD80B58AB041
:1026A000099000200890079006900590099800680E
:1026B00043F60001C4F20001884239D1FFE7FFE789
:1026C00041F21C00C4F20200016841F48041016043
:1026D000006800F4804004900498FFE7FFE741F2AF
:1026E0001800C4F20200016841F0080101600068AE
:1026F00000F0080003900398FFE74FF42040059096
:10270000022006900320089040F60040C4F2010029
:10271000019005A90291FDF7FDFE019802994FF481
:1027200080420592002206920792FDF7F3FEFFE732
:102730000AB080BD80B588B006900591ADF8122032
:10274000039300208DF80700FFE7069890F85000EB
:10275000012804D1FFE702208DF81F0031E106991E
:10276000012081F85000FFE7FFE7FEF78FF80290A5
:10277000BDF81200ADF80400069890F85100012849
:1027800004D0FFE702208DF807000FE1059820B183
:10279000FFE7BDF8120020B9FFE701208DF8070020
:1027A00004E10699032081F851000699002048654C
:1027B0000599069A1163BDF81210069A9186BDF824
:1027C0001210069AD1860699886306998887069919
:1027D000C887069948640699086406988068B0F529
:1027E000004F0DD1FFE706980168086820F040000F
:1027F000086006980168086840F480400860FFE7B8
:1028000006980068006800F04000402807D0FFE705
:1028100006980168086840F040000860FFE70698E5
:10282000C068B0F5006F4BD1FFE70698406828B14B
:10283000FFE7BDF8040001280ED1FFE70698016804
:10284000006B0088C8600699086B0230086306991F
:10285000C88E0138C886FFE7FFE70698C08E70B3C0
:10286000FFE7069800688068800700280ED5FFE71C
:1028700006980168006B0088C8600699086B0230F2
:1028800008630699C88E0138C88617E0FDF7FEFF79
:102890000299401A0399884204D3FFE70398013054
:1028A00018B9FFE7039840B9FFE703208DF8070048
:1028B0000699012081F8510078E0FFE7CDE74AE072
:1028C0000698406828B1FFE7BDF8040001280ED142
:1028D000FFE706980168006B007808730699086B9B
:1028E000013008630699C88E0138C886FFE7FFE704
:1028F0000698C08E70B3FFE706980068806880076E
:1029000000280ED5FFE706980168006B0078087371
:102910000699086B013008630699C88E0138C8868D
:1029200017E0FDF7B3FF0299401A0399884204D3D8
:10293000FFE70398013018B9FFE7039840B9FFE7B4
:1029400003208DF807000699012081F851002DE041
:10295000FFE7CDE7FFE706980399029A02F05EFFD2
:1029600020B1FFE7069920204865FFE706988068B8
:1029700070B9FFE7FFE70020009006980068C06884
:10298000009006980068806800900098FFE7FFE7D5
:102990000698406D20B1FFE701208DF8070004E0A4
:1029A0000699012081F85100FFE7FFE7FFE706994C
:1029B000002081F85000FFE79DF807008DF81F0008
:1029C000FFE79DF81F0008B080BD000080B58EB005
:1029D000DDF840C00C900B910A92ADF82630012032
:1029E000059000208DF81300FFE70C9890F8500038
:1029F000012804D1FFE702208DF83700A6E10C99E9
:102A0000012081F85000FFE7FFE7FDF73FFF069048
:102A10000C9890F851008DF81F000C9840680890B1
:102A2000BDF82600ADF824009DF81F00012812D043
:102A3000FFE70898B0F5827F09D1FFE70C9880681E
:102A400028B9FFE79DF81F00042804D0FFE7022003
:102A50008DF813006FE10B9838B1FFE70A9820B1A9
:102A6000FFE7BDF8260020B9FFE701208DF813002D
:102A700061E10C9890F85100042805D0FFE70C990B
:102A8000052081F85100FFE70C99002048650A995C
:102A90000C9A9163BDF826100C9AD187BDF82610C8
:102AA0000C9A91870B990C9A1163BDF826100C9A19
:102AB000D186BDF826100C9A91860C9908640C9961
:102AC00048640C980068006800F04000402807D077
:102AD000FFE70C980168086840F040000860FFE7D5
:102AE0000C98C068B0F5006F7AD1FFE70C98406889
:102AF00028B1FFE7BDF8240001280ED1FFE70C98AC
:102B00000168006B0088C8600C99086B023008638C
:102B10000C99C88E0138C886FFE7FFE70C98C18E74
:102B20000120029039B9FFE70C98C08F002818BF28
:102B300001200290FFE70298C00700284FD0FFE76E
:102B40000C98006880688007002818D5FFE70C986B
:102B5000C08EA0B1FFE70598012810D1FFE70C98BF
:102B60000168006B0088C8600C99086B023008632C
:102B70000C99C88E0138C88600200590FFE70C9894
:102B800000688068C007A8B1FFE70C98C08F88B1C3
:102B9000FFE70C980068C0680C99896B08800C9955
:102BA000886B023088630C99C88F0138C887012070
:102BB0000590FFE7FDF76AFE0699401A10998842D2
:102BC0000CD3FFE71098013040B1FFE703208DF8E8
:102BD00013000C99012081F85100ACE09EE77CE0E5
:102BE0000C98406828B1FFE7BDF8240001280ED1F9
:102BF000FFE70C980168006B007808730C99086B6C
:102C0000013008630C99C88E0138C886FFE7FFE7DA
:102C10000C98C18E0120019039B9FFE70C98C08F44
:102C2000002818BF01200190FFE70198C007002885
:102C300052D0FFE70C98006880688007002818D5FC
:102C4000FFE70C98C08EA0B1FFE70598012810D1CE
:102C5000FFE70C980168006B007808730C99086B0B
:102C6000013008630C99C88E0138C8860020059091
:102C7000FFE70C9800688068C007A8B1FFE70C98D0
:102C8000C08F88B1FFE70C980068C0680C99896B09
:102C900008700C99886B013088630C99C88F0138D3
:102CA000C88701200590FFE7FDF7F0FD0699401A5F
:102CB0001099884204D3FFE71098013018B9FFE754
:102CC000109840B9FFE703208DF813000C990120FC
:102CD00081F851002FE09BE7FFE70C981099069AC6
:102CE00002F09CFD38B1FFE701208DF813000C992C
:102CF000202048651FE00C98806870B9FFE7FFE767
:102D0000002003900C980068C06803900C9800683D
:102D1000806803900398FFE7FFE70C98406D20B1AF
:102D2000FFE701208DF8130004E00C99012081F8E1
:102D30005100FFE7FFE7FFE70C99002081F8500002
:102D4000FFE79DF813008DF83700FFE79DF8370087
:102D50000EB080BD80B582B00190019802F064FE93
:102D600002B080BD81B0009001B0704781B000908A
:102D700001B0704785B003900291FFE7039890F887
:102D80003C00012804D1FFE702208DF813005BE02E
:102D90000399012081F83C00FFE7FFE70399022037
:102DA00081F83D000398006840680190039800682E
:102DB00080680090019820F07000019002980168EE
:102DC00001980843019001980399096848600398A5
:102DD000006842F60041C4F20101884218D0FFE7C2
:102DE00003980068B0F1804F12D0FFE703980068A5
:102DF00040F20041C4F20001884209D0FFE7039885
:102E0000006840F60001C4F2000188420ED1FFE7DD
:102E1000009820F0800000900298416800980843D4
:102E200000900098039909688860FFE703990120E2
:102E300081F83D00FFE70399002081F83C00FFE79F
:102E400000208DF81300FFE79DF8130005B07047D0
:102E500080B582B00090009820B9FFE701208DF87E
:102E600007003FE0009890F83D0040B9FFE7009967
:102E7000002081F83C00009800F038F8FFE7009946
:102E8000022081F83D00009951F8040B02F04EFE3B
:102E90000099012081F84600FFE70099012081F8A0
:102EA0003E00009981F83F00009981F840000099A8
:102EB00081F84100FFE7FFE70099012081F8420017
:102EC000009981F84300009981F84400009981F845
:102ED0004500FFE70099012081F83D0000208DF8B2
:102EE0000700FFE79DF8070002B080BD80B584B001
:102EF00003900398006840F20041C4F20001884248
:102F000010D1FFE7FFE741F21C00C4F202000168A4
:102F100041F002010160006800F002000290029896
:102F2000FFE722E00398006840F60001C4F20001C8
:102F3000884219D1FFE7FFE741F21C00C4F202000A
:102F4000016841F004010160006800F00400019094
:102F50000198FFE71E20009000221146FEF706FEB2
:102F60000098FEF7F9FDFFE7FFE704B080BD000021
:102F700083B00190019890F83D00012804D0FFE74C
:102F800001208DF80B0047E00199022081F83D00F7
:102F900001980168C86840F00100C86001980068A5
:102FA00042F60041C4F20101884218D0FFE70198BF
:102FB0000068B0F1804F12D0FFE70198006840F23E
:102FC0000041C4F20001884209D0FFE7019800687F
:102FD00040F60001C4F20001884212D1FFE70198D7
:102FE0000068806800F0070000900098062807D06D
:102FF000FFE701980168086840F001000860FFE7FA
:1030000006E001980168086840F001000860FFE7E9
:1030100000208DF80B00FFE79DF80B0003B0704710
:1030200080B586B00490039100208DF80B00FFE777
:10303000049890F83C00012804D1FFE702208DF8A5
:103040001700ABE00499012081F83C00FFE7FFE79F
:103050000499022081F83D0004980068806801907E
:10306000019820F077000190019820F47F400190B2
:103070000198049909688860039800680090002806
:1030800072D0FFE7009810286ED0FFE70098202844
:103090006AD0FFE70098302866D0FFE70098402804
:1030A00055D0FFE70098502837D0FFE700986028F8
:1030B00040D0FFE7009870280BD0FFE70098B0F5EC
:1030C000805F05D0FFE70098B0F5005F16D052E0B2
:1030D00055E004980068039B5A689968DB6802F021
:1030E000B9FD0498006880680190019840F077006D
:1030F0000190019804990968886040E0049800688C
:10310000039B5A689968DB6802F0A4FD0498016883
:10311000886840F48040886031E004980068039A31
:103120005168D26802F052FF04980068502102F002
:10313000ABFD24E004980068039A5168D26802F05D
:103140006DFF04980068602102F09EFD17E004986E
:103150000068039A5168D26802F038FF049800684A
:10316000402102F091FD0AE0049800680399096883
:1031700002F08AFD03E001208DF80B00FFE70499BF
:10318000012081F83D00FFE70499002081F83C0010
:10319000FFE79DF80B008DF81700FFE79DF817007B
:1031A00006B080BD81B0009001B0704780B582B09C
:1031B000019001980068006900F002010020B0EB66
:1031C000510F28D0FFE701980068C06800F00201A5
:1031D0000020B0EB510F1DD0FFE7019801686FF0A0
:1031E0000200086101990120087701980068806950
:1031F000800720B1FFE70198FFF7D4FF06E00198B0
:1032000000F05EF9019800F053FAFFE70199002001
:103210000877FFE7FFE701980068006900F0040104
:103220000020B0EB910F29D0FFE701980068C0683B
:1032300000F004010020B0EB910F1ED0FFE70198D1
:1032400001686FF004000861019902200877019875
:103250000068806910F4407F04D0FFE70198FFF711
:10326000A1FF06E0019800F02BF9019800F020FA88
:10327000FFE7019900200877FFE7FFE70198006862
:10328000006900F008010020B0EBD10F28D0FFE763
:1032900001980068C06800F008010020B0EBD10F71
:1032A0001DD0FFE7019801686FF0080008610199DF
:1032B0000420087701980068C069800720B1FFE703
:1032C0000198FFF76FFF06E0019800F0F9F8019808
:1032D00000F0EEF9FFE7019900200877FFE7FFE72C
:1032E00001980068006900F010010020B0EB111F88
:1032F00029D0FFE701980068C06800F010010020A5
:10330000B0EB111F1ED0FFE7019801686FF01000AD
:10331000086101990820087701980068C06910F4D5
:10332000407F04D0FFE70198FFF73CFF06E00198DB
:1033300000F0C6F8019800F0BBF9FFE70199002002
:103340000877FFE7FFE7019800680069C00780B1D0
:10335000FFE701980068C068C00748B1FFE701981F
:1033600001686FF001000861019800F055FAFFE76D
:10337000FFE7019800680069C1B20020B0EBD11FDF
:1033800013D0FFE701980068C068C1B20020B0EB1D
:10339000D11F09D0FFE7019801686FF08000086134
:1033A0000198FFF7DFFCFFE7FFE70198006800697D
:1033B00000F040010020B0EB911F14D0FFE701980E
:1033C0000068C06800F040010020B0EB911F09D0F8
:1033D000FFE7019801686FF040000861019800F074
:1033E00031FAFFE7FFE701980068006900F020016B
:1033F0000020B0EB511F14D0FFE701980068C068AF
:1034000000F020010020B0EB511F09D0FFE7019828
:1034100001686FF0200008610198FFF7A7FCFFE743
:10342000FFE702B080BD000080B58AB0099000209F
:1034300008900790069005900998006840F20041B6
:10344000C4F20001884239D1FFE7FFE741F21800DA
:10345000C4F20200016841F004010160006800F05C
:10346000040004900498FFE7FFE741F21800C4F25B
:103470000200016841F008010160006800F00800E6
:1034800003900398FFE7C02005900220019006906A
:10349000089040F60000C4F2010005A90291FDF772
:1034A00039F801980299032205920690089040F697
:1034B0000040C4F20100FDF72DF8FFE70AB080BD1F
:1034C00081B0009001B0704780B586B00490039140
:1034D000029200208DF80700FFE7049890F83C0066
:1034E000012804D1FFE702208DF8170089E0049934
:1034F000012081F83C00FFE7FFE7029800900C28CC
:1035000000F270800099DFE801F0076D6D6D206DAD
:103510006D6D3A6D6D6D530004980068039902F06B
:10352000C9FB04980168886940F008008861049824
:103530000168886920F00400886103980269049892
:10354000016888691043886150E004980068039915
:1035500002F018FC04980168886940F400608861F2
:1035600004980168886920F4806088610398026982
:1035700004980168886940EA0220886136E004986E
:103580000068039902F06AFC04980168C86940F079
:103590000800C86104980168C86920F00400C86187
:1035A0000398026904980168C8691043C8611DE066
:1035B00004980068039902F0BDFC04980168C8698A
:1035C00040F40060C86104980168C86920F4806014
:1035D000C8610398026904980168C86940EA02203A
:1035E000C86103E001208DF80700FFE7FFE70499B9
:1035F000002081F83C00FFE79DF807008DF81700D8
:10360000FFE79DF8170006B080BD000080B582B0CE
:103610000090009820B9FFE701208DF807003FE0F7
:10362000009890F83D0040B9FFE70099002081F82C
:103630003C00009800F038F8FFE70099022081F87C
:103640003D00009951F8040B02F070FA0099012036
:1036500081F84600FFE70099012081F83E000099BB
:1036600081F83F00009981F84000009981F84100FD
:10367000FFE7FFE70099012081F84200009981F8F7
:103680004300009981F84400009981F84500FFE764
:103690000099012081F83D0000208DF80700FFE728
:1036A0009DF8070002B080BD81B0009001B0704766
:1036B00081B0009001B0704780B58AB00890079142
:1036C000079828B9FFE7089890F83E0005901CE09D
:1036D0000798042805D1FFE7089890F83F00049068
:1036E00010E00798082805D1FFE7089890F84000F7
:1036F000039004E0089890F841000390FFE70398D6
:103700000490FFE704980590FFE70598012804D08E
:10371000FFE701208DF827007AE0079828B9FFE736
:103720000899022081F83E001EE00798042806D17F
:10373000FFE70899022081F83F00029012E0079805
:10374000082806D1FFE70899022081F8400001907F
:1037500005E00899022081F841000190FFE70198F7
:103760000290FFE70298FFE7089800680799012296
:1037700002F054FA0898006842F60041C4F20101D0
:10378000884207D1FFE708980168486C40F4004080
:103790004864FFE70898006842F60041C4F201015E
:1037A000884218D0FFE708980068B0F1804F12D027
:1037B000FFE70898006840F20041C4F20001884227
:1037C00009D0FFE70898006840F60001C4F2000144
:1037D000884212D1FFE708980068806800F007006F
:1037E00006900698062807D0FFE708980168086841
:1037F00040F001000860FFE706E0089801680868EB
:1038000040F001000860FFE700208DF82700FFE787
:103810009DF827000AB080BD81B00090009840F26A
:10382000C471C2F2000188420AD1FFE740F6B80134
:10383000C2F2000108684FF6FF7210440860FFE70B
:1038400001B0704781B0009001B0704782B0019024
:10385000ADF8021002B0704781B0009001B070471F
:1038600080B592B01190119800680068109011987E
:103870000068C0680F901198006840690E900020A1
:103880000D900C90109800F00F000D900D9888B9D5
:10389000FFE79DF84000800600280AD5FFE79DF865
:1038A0003C008006002804D5FFE7119802F04EFC8A
:1038B000E9E1FFE70D98002800F0C280FFE79DF8DE
:1038C0003800C00738B9FFE7BDF83C0010F4907F1E
:1038D00000F0B680FFE79DF84000C00758B1FFE751
:1038E0009DF83D00C00730B1FFE71199486C40F0EA
:1038F00001004864FFE79DF84000400700280BD511
:10390000FFE79DF83800C00730B1FFE71199486C18
:1039100040F002004864FFE79DF84000800700285F
:103920000BD5FFE79DF83800C00730B1FFE71199CC
:10393000486C40F004004864FFE79DF84000000731
:10394000002811D5FFE79DF83C008006002805D42B
:10395000FFE79DF83800C00730B1FFE71199486CC8
:1039600040F008004864FFE71198406C002866D0DA
:10397000FFE79DF84000800600280AD5FFE79DF884
:103980003C008006002804D5FFE7119802F0DEFB1A
:10399000FFE7119800684069C0F380100C901198FF
:1039A000406C0007002804D4FFE70C9800283ED0A4
:1039B000FFE7119802F06CFB11980068406940061F
:1039C00000282FD5FFE7FFE7FFE71198006850E8D0
:1039D000050F20F040000B90FFE70B99119802684B
:1039E00042E805100028F0D1FFE7FFE71198C06B0F
:1039F00098B1FFE71198C16B46F27100C0F6000064
:103A000048631198C06BFCF7F7FC28B1FFE71198E9
:103A1000C06B416B8847FFE703E01198FFF71CFF7D
:103A2000FFE703E01198FFF717FFFFE706E01198A3
:103A3000FFF712FF119900204864FFE7FFE722E13A
:103A40001198006B012840F0FE80FFE79DF84000D0
:103A5000C006002840F1F780FFE79DF83C00C00653
:103A6000002840F1F080FFE7FFE700200A9011985E
:103A7000006800680A901198006840680A900A98E7
:103A8000FFE71198006840694006002840F18180F6
:103A9000FFE71198C06B00684068ADF82600BDF8DC
:103AA0002600002874D0FFE7BDF826001199898D03
:103AB00088426DDAFFE7BDF826001199C885119894
:103AC000C06B8069202858D0FFE7FFE7FFE7119817
:103AD000006850E8030F20F480700890FFE7089911
:103AE0001198026842E803100028F0D1FFE7FFE7D1
:103AF000FFE7FFE71198006850E8050F20F001008C
:103B00000790FFE707991198026842E8051000281E
:103B1000F0D1FFE7FFE7FFE7FFE71198006850E803
:103B2000050F20F040000690FFE706991198026803
:103B300042E805100028F0D1FFE7FFE711992020A7
:103B400081F84200119900200863FFE7FFE7119810
:103B5000006850E8030F20F010000590FFE705997A
:103B60001198026842E803100028F0D1FFE7FFE750
:103B70001198C06BFCF702FCFFE711990220486323
:103B80001198818DC28D891A89B2FFF75FFEFFE718
:103B900079E01199888DC98D401AADF812001198FD
:103BA000C08D00284ED0FFE7BDF81200002849D094
:103BB000FFE7FFE7FFE71198006850E8030F20F4E4
:103BC00090700390FFE703991198026842E8031090
:103BD0000028F0D1FFE7FFE7FFE7FFE71198006853
:103BE00050E8050F20F001000290FFE702991198BC
:103BF000026842E805100028F0D1FFE7FFE71199BD
:103C0000202081F84200119900200863FFE7FFE7B8
:103C10001198006850E8030F20F010000190FFE7B2
:103C200001991198026842E803100028F0D1FFE7DB
:103C3000FFE71199022048631198BDF81210FFF7B1
:103C400005FEFFE71FE09DF84000000600280AD5AA
:103C5000FFE79DF83C000006002804D5FFE7119817
:103C600002F0BAFB0FE09DF84000400600280AD59C
:103C7000FFE79DF83C004006002804D5FFE71198B7
:103C800002F050FAFFE712B080BD000080B582B0AC
:103C90000090009820B9FFE701208DF8070040E070
:103CA0000098806908B1FFE700E0FFE7009890F80E
:103CB000410040B9FFE70099002081F840000098DA
:103CC00000F034F8FFE70099242081F841000098C3
:103CD0000168C86820F40050C860009802F0ECFA4F
:103CE00000980168086920F4904008610098016814
:103CF000486920F02A00486100980168C86840F4CB
:103D00000050C860009900204864009A202182F881
:103D10004110009A82F84210009948638DF807001C
:103D2000FFE79DF8070002B080BD000080B590B0AD
:103D30000F9000200E900D900C900B900F98006843
:103D400043F60001C4F20101884243D1FFE7FFE7D7
:103D500041F21800C4F20200016841F480410160A0
:103D6000006800F480400A900A98FFE7FFE741F2FC
:103D70001800C4F20200016841F00401016000680B
:103D800000F0040009900998FFE74FF400700B90D1
:103D900002200C9003200E9040F60000C4F20100B7
:103DA00003900BA90491FCF7B5FB039804994FF419
:103DB00080620B92002205920C920D92FCF7AAFBF6
:103DC000059A252006901146FDF7D0FE0698FDF7CE
:103DD000C3FE40E00F98006844F20041C4F20001C5
:103DE000884237D1FFE7FFE741F21C00C4F202002E
:103DF000016841F400310160006800F4003008906F
:103E00000898FFE7FFE741F21800C4F202000168DA
:103E100041F004010160006800F004000790079879
:103E2000FFE704200B9002200C9003200E9040F638
:103E30000000C4F2010001900BA90291FCF76AFB9B
:103E40000198029908220B9200220C920D92FCF725
:103E500061FBFFE7FFE710B080BD000080B584B0D4
:103E600002900191ADF80220029890F842002028BB
:103E700017D1FFE7019820B1FFE7BDF8020020B994
:103E8000FFE701208DF80F000FE002990020086382
:103E900002980199BDF8022002F06CFA8DF80F002B
:103EA00003E002208DF80F00FFE79DF80F0004B03B
:103EB00080BD000080B582B00190019840F61401E9
:103EC000C2F20001884203D1FFE704F0F5F9FFE7F1
:103ED00002B080BD81B00090009840F61401C2F29B
:103EE0000001884201D1FFE7FFE701B07047000001
:103EF000FFE7FEE782B0009000980068406900F498
:103F000080610120B0EB912F1ED1FFE7009801687E
:103F10006FF480604861009900200863009A2021B6
:103F200082F83D10009981F83E000099086C40F03D
:103F300004000864FFE70099002081F83C00FFE7D7
:103F400001208DF8070003E000208DF80700FFE74F
:103F50009DF8070002B0704780B588B00690ADF8B4
:103F60001610049203930698C06A0290069801689E
:103F7000086840F4806008600298082809D0FFE7CC
:103F80000298012805D0FFE7029810F5803F07D17D
:103F9000FFE706980168086840F4807008600DE04B
:103FA0000698006B112807D1FFE70698016808689A
:103FB00040F48070086000E0FFE7FFE70698049B8C
:103FC00003996A4611604FF00111002200F06CFA6B
:103FD00080B1FFE7069800680068C005002805D595
:103FE000FFE706994FF400700864FFE703208DF89F
:103FF0001F0082E006980069B0F5804F08D1FFE706
:104000009DF8160040F0010006990968086162E019
:10401000BDF8160000F44070C009F0300699096838
:1040200008610698049A039B0821C0F2010100F080
:10403000BFFA20B1FFE701208DF81F005DE09DF879
:1040400016000699096808610698049A039B0221E4
:10405000C0F2010100F0ACFA20B1FFE701208DF8B9
:104060001F004AE0FFE700200190069800684069C1
:10407000019006980068806901900198FFE7069812
:104080000168086840F4807008600698049B0399F2
:104090006A4611604FF00111002200F005FA80B16C
:1040A000FFE7069800680068C005002805D5FFE70F
:1040B00006994FF400700864FFE703208DF81F0095
:1040C0001BE0BDF8160000F44070C009F1300699FD
:1040D00009680861FFE70698049A039B0221C0F271
:1040E000010100F065FA20B1FFE701208DF81F0003
:1040F00003E000208DF81F00FFE79DF81F0008B0C7
:1041000080BD000080B588B00690ADF8161004920E
:1041100003930698C06A02900298082809D0FFE726
:104120000298012805D0FFE7029810F5803F07D1DB
:10413000FFE706980168086840F4807008600DE0A9
:104140000698006B122807D1FFE7069801680868F7
:1041500040F48070086000E0FFE7FFE70698049BEA
:1041600003996A4611604FF00111002200F09CF99A
:1041700080B1FFE7069800680068C005002805D5F3
:10418000FFE706994FF400700864FFE703208DF8FD
:104190001F003CE006980069B0F5804F08D1FFE7AA
:1041A000BDF8160000F0FE000699096808611CE0E1
:1041B000BDF8160000F44070C009F0300699096897
:1041C00008610698049A039B0821C0F2010100F0DF
:1041D000EFF920B1FFE701208DF81F0017E09DF8EF
:1041E0001600069909680861FFE70698049A039B80
:1041F0000221C0F2010100F0DBF920B1FFE701204C
:104200008DF81F0003E000208DF81F00FFE79DF8E8
:104210001F0008B080BD000080B586B0DDF824C066
:10422000DDF820C00490ADF80E10ADF80C20ADF80C
:104230000A3004980168086840F4806008600498B7
:104240000168086840F4807008600498089B099928
:104250006A4611604FF00111002200F025F980B18B
:10426000FFE7049800680068C005002805D5FFE74F
:1042700004994FF400700864FFE703208DF81700DD
:10428000B7E0BDF80E0000F0FE000499096808616F
:104290000498089A099B0221C0F2010100F088F9F4
:1042A00020B1FFE701208DF81700A2E0FFE7002012
:1042B0000190049800684069019004980068806942
:1042C00001900198FFE704980899099A00F088FA8C
:1042D00080B1FFE70498006C042807D1FFE7049839
:1042E0000168086840F400700860FFE701208DF85D
:1042F00017007EE0BDF80A00012806D1FFE79DF80F
:104300000C0004990968086121E09DF80D000499EA
:104310000968086104980899099A00F061FA80B167
:10432000FFE70498006C042807D1FFE704980168B0
:10433000086840F400700860FFE701208DF817005E
:1043400057E09DF80C00049909680861FFE704989C
:104350000899099A00F044FA80B1FFE70498006CCC
:10436000042807D1FFE704980168086840F400704A
:104370000860FFE701208DF817003AE00498016813
:10438000086840F4807008600498089B09996A46A0
:1043900011604FF00111002200F086F880B1FFE7B4
:1043A000049800680068C005002805D5FFE7049957
:1043B0004FF400700864FFE703208DF8170018E041
:1043C0009DF80E0040F00100049909680861049806
:1043D000089A099B0221C0F2010100F0E9F820B11E
:1043E000FFE701208DF8170003E000208DF817008B
:1043F000FFE79DF8170006B080BD000080B584B0CF
:10440000029001910092FFE702980068406900F075
:1044100004010020B0EB910F3ED1FFE70298FFF7B7
:1044200069FD20B1FFE701208DF80F0038E0019809
:10443000013080B3FFE7FCF729FA0099401A01998F
:10444000884203D8FFE7019820BBFFE70298006885
:10445000406900F004010020B0EB910F19D1FFE793
:10446000029900200863029A202182F83D100299E7
:1044700081F83E000299086C40F020000864FFE7D4
:104480000299002081F83C00FFE701208DF80F0021
:1044900006E0FFE7FFE7B7E700208DF80F00FFE732
:1044A0009DF80F0004B080BD80B588B0DDF828C04D
:1044B000069005918DF813200393FFE79DF81600F1
:1044C00001280CD1FFE7069800684069BDF8141078
:1044D0000840401AB0FA80F0400902900BE00698BC
:1044E00000688069BDF814100840401AB0FA80F0E6
:1044F00040090290FFE702989DF8131088424FD1BF
:10450000FFE703980130002849D0FFE7FCF7BEF928
:104510000A99401A0399884203D8FFE70398E8BB39
:10452000FFE79DF8160001280CD1FFE70698006808
:104530004069BDF814100840401AB0FA80F04009F4
:1045400001900BE0069800688069BDF814100840DF
:10455000401AB0FA80F040090190FFE701989DF8F9
:104560001310884219D1FFE7069900200863069AC4
:10457000202182F83D10069981F83E000699086CCA
:1045800040F020000864FFE70699002081F83C0015
:10459000FFE701208DF81F0006E0FFE7FFE78DE74A
:1045A00000208DF81F00FFE79DF81F0008B080BDB8
:1045B00080B588B00690059104920393FFE79DF8BB
:1045C000160001280CD1FFE7069800684069BDF885
:1045D00014100840401AB0FA80F0400902900BE035
:1045E000069800688069BDF814100840401AB0FAB7
:1045F00080F040090290FFE7029800287AD1FFE797
:1046000006980068406900F480610120B0EB912FAA
:1046100024D1FFE706980168086840F4007008603C
:10462000069801686FF4806048610699002008636D
:10463000069A202182F83D10069981F83E000699DD
:10464000086C40F004000864FFE70699002081F838
:104650003C00FFE701208DF81F004FE00498013077
:10466000002846D0FFE7FCF711F90399401A049996
:10467000884203D8FFE70498D0BBFFE79DF81600F7
:1046800001280CD1FFE7069800684069BDF81410B6
:104690000840401AB0FA80F0400901900BE00698FB
:1046A00000688069BDF814100840401AB0FA80F024
:1046B00040090190FFE70198C8B9FFE7069900207B
:1046C0000863069A202182F83D10069981F83E0081
:1046D0000699086C40F020000864FFE70699002066
:1046E00081F83C00FFE701208DF81F0006E0FFE79E
:1046F000FFE764E700208DF81F00FFE79DF81F002B
:1047000008B080BD80B584B0029001910092FFE7AF
:1047100002980068406900F040010020B0EB911F52
:1047200056D1FFE702980068406900F010010120AF
:10473000B0EB111F1CD1FFE7029801686FF0100069
:104740004861029900200863029A202182F83D10F6
:10475000029981F83E000299086C0864FFE702990B
:10476000002081F83C00FFE701208DF80F0033E0C6
:10477000FCF78CF80099401A0199884203D8FFE7AA
:10478000019820BBFFE702980068406900F04001F3
:104790000020B0EB911F19D1FFE7029900200863B8
:1047A000029A202182F83D10029981F83E00029978
:1047B000086C40F020000864FFE70299002081F8AF
:1047C0003C00FFE701208DF80F0005E0FFE79FE7C1
:1047D00000208DF80F00FFE79DF80F0004B080BDAA
:1047E00080B584B0029001910092FFE702980068C2
:1047F0004069C1B20020B0EBD11F3DD1FFE7029864
:10480000FFF778FB20B1FFE701208DF80F0037E0BC
:104810000198013078B3FFE7FCF738F80099401AA7
:104820000199884203D8FFE7019818BBFFE7029877
:1048300000684069C1B20020B0EBD11F19D1FFE779
:10484000029900200863029A202182F83D10029903
:1048500081F83E000299086C40F020000864FFE7F0
:104860000299002081F83C00FFE701208DF80F003D
:1048700006E0FFE7FFE7B9E700208DF80F00FFE74C
:104880009DF80F0004B080BD80B540F2080040F2F2
:104890001931C2F20000C2F20001FBF749FD40F6F7
:1048A000D401C2F20001087080BD000080B592B052
:1048B0000020119010900F900E90FFE741F2180029
:1048C000C4F20200016841F010010160006800F0CC
:1048D00010000D900D98FFE7FFE741F21800C4F2B9
:1048E0000200016841F020010160006800F0200032
:1048F0000C900C98FFE7FFE741F21800C4F20200A9
:10490000016841F004010160006800F004000B90B0
:104910000B98FFE7FFE741F21800C4F202000168BC
:1049200041F008010160006800F008000A900A9850
:10493000FFE741F20000C4F2010002904FF4005181
:10494000009100220192FBF789FF019A40F60000D6
:10495000C4F20100059010210391FBF77FFF019A3B
:1049600040F60040C4F2010008904FF480510691D7
:10497000FBF774FF009A019902980E9201220792A8
:104980000F9210910221049111910EA90991FBF748
:10499000C1FDDDF80CC0049A0598079B0999CDF874
:1049A00038C00F9310931192FBF7B4FD069B079A42
:1049B000089809990E930F92109203221192FBF717
:1049C000A9FD12B080BD000080B582B040F27C60CD
:1049D000C2F20000019045F20041C4F20001016002
:1049E00041F68021C0F20601416000218160C16072
:1049F0004FF48042026141618161C1610162FBF754
:104A00004BFF18B1FFE7FBF78BFCFFE702B080BD5F
:104A100080B582B040F2D060C2F20000019045F64D
:104A20000001C4F20001016048F2A061C0F201017E
:104A3000416000218160C1604FF4804202614161A8
:104A40008161C1610162FBF727FF18B1FFE7FBF746
:104A500067FCFFE702B080BD80B582B040F22470F1
:104A6000C2F20000019043F60001C4F200010160AF
:104A70004FF48271416000218160C1600161416138
:104A80004FF4007282611022C26101624162816250
:104A90000A21C162FDF786FD18B1FFE7FBF740FC74
:104AA000FFE702B080BD000080B58EB0002100910C
:104AB0000D910C910B910A91099108910791069122
:104AC0000591049103910291019140F27C70C2F230
:104AD000000040F20042C4F200020260472242603D
:104AE00081604FF6FF72C26001618161FEF7B0F92B
:104AF00018B1FFE7FBF714FCFFE74FF480500A9072
:104B000040F27C70C2F200000AA9FEF789FA18B1DF
:104B1000FFE7FBF705FCFFE740F27C70C2F2000004
:104B2000FEF774FD18B1FFE7FBF7FAFBFFE7002083
:104B30000890099040F27C70C2F2000008A9FEF7CC
:104B400019F918B1FFE7FBF7EBFBFFE760200190D5
:104B5000002202920392059240F27C70C2F20000A1
:104B600001A9FEF7B1FC18B1FFE7FBF7D9FBFFE79E
:104B700040F27C70C2F2000001A90422FEF7A4FCFE
:104B800018B1FFE7FBF7CCFBFFE740F27C70C2F205
:104B9000000001A90822FEF797FC18B1FFE7FBF718
:104BA000BFFBFFE740F27C70C2F2000001A90C22BB
:104BB000FEF78AFC18B1FFE7FBF7B2FBFFE740F214
:104BC0007C70C2F20000FEF72FFC0EB080BD00002A
:104BD00080B588B00021019107910691059104915B
:104BE0000391029140F2C470C2F2000040F600024C
:104BF000C4F2000202604722426081604FF6FF72F9
:104C0000C260016180218161FEF722F918B1FFE7DE
:104C1000FBF786FBFFE74FF48050049040F2C4702E
:104C2000C2F2000004A9FEF7FBF918B1FFE7FBF799
:104C300077FBFFE700200290039040F2C470C2F2BD
:104C4000000002A9FEF796F818B1FFE7FBF768FB32
:104C5000FFE708B080BD000080B582B040F61400C8
:104C6000C2F20000019043F60001C4F201010160AC
:104C70004FF41651416000218160C16001610C2236
:104C800042618161C161FFF701F818B1FFE7FBF7ED
:104C900047FBFFE702B080BD80B582B040F65C0004
:104CA000C2F20000019044F20041C4F20001016030
:104CB0004FF4E131416000218160C16001610C224B
:104CC00042618161C161FEF7E1FF18B1FFE7FBF7C7
:104CD00027FBFFE702B080BDFFE7FEE7FFE7FEE747
:104CE00088B0079006910592079800F0070004909D
:104CF0000498C0F10700052803D3FFE704200190C2
:104D000004E00498C0F107000190FFE701980390C8
:104D100004980430062803D8FFE70020009003E041
:104D2000049803380090FFE70098029006980399D2
:104D3000012202FA01F101390840029B98400599CD
:104D40009A40013A1140084308B07047704700008C
:104D500082B00190019840F20401C2F2000109689A
:104D6000C90844F6D352C1F26202A1FB02218909AB
:104D700048430090FFE700BFFFE70098411E009105
:104D80000028F8D1FFE702B07047000040F217306A
:104D9000C2F200000078012808DBFFE740F217317B
:104DA000C2F20001087801380870FFE740F21830BD
:104DB000C2F200000078012808DBFFE740F218315A
:104DC000C2F20001087801380870FFE77047000060
:104DD00040F21630C2F200000078704740F21631FF
:104DE000C2F20001002008707047000080B586B054
:104DF00041F6FF700390FBF785FA00200290FFE771
:104E00000298092808DCFFE7FF2000F059FDFFE7C2
:104E1000029801300290F3E700F0F4FC40208DF896
:104E2000120000208DF813008DF814008DF8150085
:104E30008DF8160095218DF817100190FFE7019865
:104E400005280BDCFFE701990DF11200405C00F032
:104E500037FDFFE7019801300190F0E7FFE700F030
:104E6000FFFC014600200129009006D0FFE70398CF
:104E7000002818BF01200090FFE70098C00720B16C
:104E8000FFE7039801380390E9E7FBF73BFAFF20BF
:104E900000F016FD40F21631C2F200010120087048
:104EA00006B080BD80B582B040F21831C2F2000178
:104EB0003220087000F0D4FCFFE700F0D1FC8DF840
:104EC0000700FFE79DF807100020FF2900900AD097
:104ED000FFE740F21830C2F200000078002818BF47
:104EE00001200090FFE70098C0070028E5D1FFE708
:104EF0009DF8070002B080BD80B586B00490039194
:104F000040F21731C2F200010A200870FFE700F0FA
:104F1000A7FC8DF80B00FFE79DF80B100020FF2980
:104F200001900AD1FFE740F21730C2F2000000788A
:104F3000002818BF01200190FFE70198C007002852
:104F4000E5D1FFE79DF80B00FE2804D0FFE7002025
:104F50008DF8170019E0FFE70498411C049100F058
:104F6000A5FC0498411C049100F0A0FCFFE7039805
:104F7000023803900028EFD1FFE700F071FC00F049
:104F80006FFC01208DF81700FFE79DF8170006B0B1
:104F900080BD000080B584B08DF80E000291FFF74F
:104FA00081FFFF2804D0FFE7FF208DF80F005AE0B3
:104FB0009DF80E0000F084FC9DF80B0000F080FCD2
:104FC0009DF80A0000F07CFC9DF8090000F078FCD8
:104FD0009DF8080000F074FC00208DF807009DF893
:104FE0000E00402804D1FFE795208DF80700FFE769
:104FF0009DF80E00482804D1FFE787208DF80700B0
:10500000FFE79DF8070000F05BFC9DF80E004C28C0
:1050100003D1FFE700F024FCFFE70A208DF805002C
:10502000FFE700F01DFC8DF80600FFE79DF8061075
:1050300000200906002900900BD5FFE79DF8050028
:10504000411EC8B28DF80510002818BF012000903D
:10505000FFE70098C0070028E3D1FFE79DF80600AE
:105060008DF80F00FFE79DF80F0004B080BD000031
:1050700080B584B002908DF8071000208DF80400F0
:10508000FFF710FFFF2804D0FFE700208DF80F0086
:1050900054E09DF8070000F013FC9DF80700FD2880
:1050A0003DD0FFE700208DF80500FFE70298411C86
:1050B0000291007800F004FC0298411C02910078F3
:1050C00000F0FEFBFFE79DF8050001388DF80500B4
:1050D00000060028EAD1FFE700F0C2FB00F0C0FBA9
:1050E000FFE79DF80400402812DCFFE700F0B8FB62
:1050F0008DF806009DF8060000F01F00052801D17C
:10510000FFE705E09DF8040001308DF80400E8E7B2
:10511000FFE700F0A5FB08B9FFE7FAE7FFE79DF816
:10512000060000F01F00052804D1FFE701208DF8DC
:105130000F0003E000208DF80F00FFE79DF80F003F
:1051400004B080BD80B586B08DF816009DF81600BD
:1051500020B1FFE701208DF8170010E140F20000B8
:10516000C2F2000000788007002808D5FFE740F26F
:105170000000C2F2000000788DF81700FFE0FFF792
:1051800035FE00F03FFB00218DF814104020FFF7A2
:1051900001FF012840F0D080FFE740F21731C2F252
:1051A00000016420087048204FF4D571FFF7F2FE2B
:1051B000012868D1FFE700208DF81500FFE79DF872
:1051C000150003280DDCFFE700F04AFB9DF81520D1
:1051D00004A98854FFE79DF8150001308DF81500EB
:1051E000EDE79DF8120001284CD1FFE79DF8130070
:1051F000AA2847D1FFE7FFE777200021FFF7CAFE83
:10520000012808DCFFE769204FF08041FFF7C2FE6C
:1052100008B9FFE708E0FFE740F21730C2F20000EC
:1052200000780028E8D1FFE740F21730C2F2000012
:10523000007830B3FFE77A200021FFF7ABFE00BB18
:10524000FFE700208DF81500FFE79DF81500032803
:105250000DDCFFE700F004FB9DF8152004A988543D
:10526000FFE79DF8150001308DF81500EDE79DF87A
:10527000100041060220002948BF06208DF81400C6
:10528000FFE7FFE757E0772000210291FFF782FE5A
:1052900001460298012903900CDCFFE769200021F8
:1052A0000191FFF777FE014601980229B8BF01205E
:1052B0000390FFE70398C1070120002918BF0220CF
:1052C0008DF81400FFE79DF8140002280FD1FFE7C6
:1052D00077200021FFF75EFE012807DCFFE7692049
:1052E0000021FFF757FE08B9FFE711E007E0412072
:1052F0000021FFF74FFE08B9FFE709E0FFE7FFE7EE
:1053000040F21730C2F2000000780028DBD1FFE73E
:1053100040F21730C2F20000007838B1FFE75020A9
:105320004FF40071FFF736FE20B1FFE700208DF843
:105330001400FFE7FFE7FFE79DF8140040F2F001DB
:10534000C2F200010870FAF7DDFF00F089FA9DF85B
:10535000140048B1FFE740F20001C2F200010878F2
:1053600000F0FE00087002E0FFF738FDFFE740F2B2
:105370000000C2F2000000788DF81700FFE79DF8EA
:10538000170006B080BD000080B58CB08DF82E00EF
:105390008DF82D100A920A9804909DF82E0020B1E5
:1053A000FFE704208DF82F0009E101208DF8270088
:1053B0009DF82D0005282CD1FFE7049800780146C0
:1053C000029140B1FFE7029801280FD0FFE7029851
:1053D000022811D018E0FFF7FBFC18B1FFE7FFF738
:1053E000FDFCFFE700208DF8270011E0FFF7FEFC31
:1053F00000208DF827000BE0FFF7EAFC04994870C5
:1054000000208DF8270003E004208DF82700FFE737
:10541000D0E040F20000C2F200000078C00720B1E6
:10542000FFE703208DF82F00C9E000F0EBF99DF8AD
:105430002D00014601910D2800F2B3800199DFE8AB
:1054400001F063075BB0B0B0B0B0B0B0B06D7E8FAC
:1054500049200021FFF79EFD00284CD1FFE70DF108
:1054600016001021FFF748FD002844D0FFE79DF803
:1054700016100120B0EB911F0FD1FFE79DF81E1011
:105480009DF81F0040EA01200130ADF80E00BDF884
:105490000E0080020A99086029E09DF81B009DF823
:1054A0001F109DF8202000F00F0000EBD21001F03B
:1054B000030100EB410002308DF826009DF81C101E
:1054C0009DF81D209DF81E00800940EA820001F031
:1054D000030140EA81200130ADF80E00BDF80E0056
:1054E0009DF82610093988400A990860FFE70020D6
:1054F0008DF82700FFE758E00A994FF40070088004
:1055000000208DF8270050E0FFF7CCFCFF2804D1E5
:10551000FFE700208DF82700FFE746E04920002143
:10552000FFF738FD50B9FFE704981021FFF7E4FCBE
:1055300020B1FFE700208DF82700FFE735E04A2083
:105540000021FFF727FD50B9FFE704981021FFF76E
:10555000D3FC20B1FFE700208DF82700FFE724E00F
:105560007A200021FFF716FDD0B9FFE700208DF863
:105570002600FFE79DF8260003280DDCFFE700F07A
:105580006FF904994A1C04920870FFE79DF8260001
:1055900001308DF82600EDE700208DF82700FFE7A9
:1055A000FFE704208DF82700FFE7FAF7ABFE00F0D5
:1055B00057F9FFE79DF827008DF82F00FFE79DF8CA
:1055C0002F000CB080BD000080B584B08DF80E00B7
:1055D0000291019200939DF80E0018B9FFE7009820
:1055E00020B9FFE704208DF80F005AE040F20000D8
:1055F000C2F200000078C00720B1FFE703208DF859
:105600000F004EE040F2F000C2F2000000784007C8
:10561000002804D4FFE7019840020190FFE700F062
:10562000F1F80098012811D1FFE701995120FFF707
:10563000B1FC50B9FFE702984FF40071FFF75CFC32
:1056400018B1FFE700200090FFE71FE0019952200A
:10565000FFF7A0FCC8B9FFE7FFE702984FF400711D
:10566000FFF74AFC08B9FFE70AE0029800F500706E
:105670000290FFE70098013800900028EDD1FFE785
:105680004C200021FFF786FCFFE7FFE7FAF73AFE20
:1056900000F0E6F80098002818BF01208DF80F00F0
:1056A000FFE79DF80F0004B080BD000081B08DF8C9
:1056B00002009DF8020020B1FFE701208DF80300F1
:1056C00007E040F20000C2F2000000788DF803000D
:1056D000FFE79DF8030001B07047000080B584B07B
:1056E0008DF80E000291019200939DF80E0018B9FA
:1056F000FFE7009820B9FFE704208DF80F007CE059
:1057000040F20000C2F200000078C00720B1FFE7BD
:1057100003208DF80F0070E040F20000C2F200009C
:1057200000784007002804D5FFE702208DF80F001D
:1057300063E040F2F000C2F2000000784007002869
:1057400004D4FFE7019840020190FFE700F05AF807
:105750000098012810D1FFE701995820FFF71AFCA3
:1057600048B9FFE70298FE21FFF782FC18B1FFE776
:1057700000200090FFE735E040F2F000C2F20000A8
:1057800000788007002809D5FFE777200021FFF780
:1057900001FC00995720FFF7FDFBFFE70199592015
:1057A000FFF7F8FBE8B9FFE7FFE70298FC21FFF7F6
:1057B0005FFC08B9FFE70AE0029800F5007002906C
:1057C000FFE70098013800900028EED1FFE70020A5
:1057D000FD21FFF74DFC18B9FFE701200090FFE71E
:1057E000FFE7FFE7FAF78EFD00F03AF8009800288F
:1057F00018BF01208DF80F00FFE79DF80F0004B0DF
:1058000080BD000080B540F60040C4F201004FF4B6
:1058100080510022FBF722F880BD000080B586B0E1
:105820000490039102920498039B02996A461160C6
:105830008021002200F060F848B1FFE70499486D2C
:1058400040F02000486503208DF8170003E0002099
:105850008DF81700FFE79DF8170006B080BD000027
:1058600080B582B0FF208DF8070000208DF806007B
:10587000FFE740F22470C2F20000FCF78BFE012823
:1058800001D0FFE7F5E769464FF47A70086040F20F
:105890002470C2F200000DF107010DF10602012390
:1058A000FDF794F89DF8060002B080BD80B582B087
:1058B0000190FFF7D5FF0199087002B080BD00008C
:1058C00080B582B08DF80700FFE740F22470C2F285
:1058D0000000FCF75FFE012801D0FFE7F5E740F28A
:1058E0002470C2F200000DF1070101224FF47A7317
:1058F000FCF720FF02B080BD80B58AB0DDF830C073
:10590000089007918DF81B20059305980190FAF7F0
:10591000BDFF024601980C99891A08440390FAF7D2
:10592000B5FF0290039840F20401C2F20001096839
:10593000C1F3CB3148430490FFE7089800688068C2
:1059400007990840401AB0FA80F040099DF81B10F2
:1059500088425ED0FFE705980130002858D0FFE765
:10596000FAF794FF0299401A0399884204D2FFE79C
:105970000398002842D1FFE708980168486820F0A2
:10598000E000486008984068B0F5827F13D1FFE7D7
:1059900008988068B0F5004F06D0FFE70898806847
:1059A000B0F5806F07D1FFE708980168086820F01C
:1059B00040000860FFE70898806AB0F5005F0FD1EB
:1059C000FFE7FFE708980168086820F400500860C6
:1059D00008980168086840F400500860FFE7FFE796
:1059E0000899012081F85100FFE70899002081F80B
:1059F0005000FFE703208DF827000EE0049818B947
:105A0000FFE700200390FFE7049801380490FFE7C8
:105A100093E700208DF82700FFE79DF827000AB0E4
:105A200080BD00007047000080B582B000900098F3
:105A30000138B0F1807F03D3FFE70120019019E026
:105A4000009801384EF21401CEF2000108604FF0C8
:105A5000FF300F2100F03EFD4EF21801CEF20001A2
:105A6000002008604EF21002CEF200020721116001
:105A70000190FFE7019802B080BD000080B540F2C0
:105A8000F800C2F2000001780131017000780A28A4
:105A900009DBFFE740F2F801C2F2000100200870C4
:105AA000FFF774F9FFE7FBF7CBFF80BD80B590B03F
:105AB00006A800902821FAF7BFFB00980023059361
:105AC0000493039302930193012206924FF48031D1
:105AD000079108930A9202220D920E914FF4E01161
